:020000040800F2
:10000000A836002085020008E32600082F240008F7
:10001000E12600084D0E0008313D000800000000F8
:10002000000000000000000000000000ED010008DA
:100030004F0E00080000000031020008DD38000803
:100040009F0200089F0200089F0200089F0200080C
:100050009F0200089F0200089F0200089F020008FC
:100060009F0200089F0200089F0200089F020008EC
:100070009F0200089F0200089F0200089F020008DC
:100080009F0200089F0200089F0200089F020008CC
:100090009F0200089F0200089F0200089F020008BC
:1000A0009F020008693900089F0200089F020008AB
:1000B000753900089F0200089F0200089F0200088F
:1000C0009F0200089F0200089F0200089F0200088C
:1000D0009F020008253D00089F0200089F020008BB
:1000E0009F0200089F0200089F0200089F0200086C
:1000F0009F0200089F0200089F0200089F0200085C
:100100009F0200089F0200089F0200089F0200084B
:100110009F020008993A00089F0200089F02000809
:100120009F0200089F0200089F0200089F0200082B
:1001300000F002F800F04BF80AA090E8000C8244AE
:100140008344AAF10107DA4501D100F040F8AFF28B
:10015000090EBAE80F0013F0010F18BFFB1A43F0A5
:10016000010318477853000098530000103A24BF49
:1001700078C878C1FAD8520724BF30C830C144BF0C
:1001800004680C607047000000230024002500264E
:10019000103A28BF78C1FBD8520728BF30C148BFEA
:1001A0000B607047642900F00581732900F0FB8320
:1001B000002070471FB500F045FE0400002000211C
:1001C00005F094F8401C60601FBD10B510BD00F034
:1001D000FCFD1146FFF7EEFF03F03BFE00F022FEB0
:1001E00003B4FFF7F2FF03BC00F026FE224B1968B0
:1001F0000868B0E8F00F80F30988BFF36F8F4FF005
:10020000000080F311884EF00D0E704700000000D2
:1002100006480068006880F3088862B661B6BFF3DC
:100220004F8FBFF36F8F00DF00BF00BF08ED00E00E
:10023000EFF30980BFF36F8F0F4B1A6820E9F00FBF
:10024000106008B54FF0500080F31188BFF34F8F56
:10025000BFF36F8F04F022FB4FF0000080F3118892
:10026000BDE8084019680868B0E8F00F80F3098815
:10027000BFF36F8F704700BF2C000020EFF30580A5
:10028000704700000948804709480047FEE7FEE73D
:10029000FEE7FEE7FEE7FEE7FEE7FEE7FEE7FEE736
:1002A00004480549054A064B7047000067390008B5
:1002B00031010008A8300020A8360020A832002014
:1002C000A83200200FB41CB50C0007AA009001D082
:1002D0002044401E074B7B4469460190069800F07D
:1002E00030FB002C03D06946002000F03DFB1CBC15
:1002F0005DF814FB990600002DE9F0410E46044616
:10030000002020622046E168884730B3252805D0C8
:10031000D4E901219047206A401CF2E7E1682046B9
:1003200000278847050018D0A5F14100192802D8F8
:1003300020354FF400673246294620462760FFF7F4
:1003400031FF40B1012804D0F61D26F0070608361B
:10035000D8E7361DD6E72846DAE7206ABDE8F081FF
:1003600070B50C460546012A05D02878800600D5D0
:10037000EA69002302E0012305E05B1C934202D2FC
:10038000E05C0028F9D1A869E618C01AA861286ABB
:10039000184428622846AFF3008004E0D5E9012123
:1003A00014F8010B9047B442F8D32846AFF300800D
:1003B00070BD00002DE9F041064600241068752943
:1003C000314616A510D0AFF30080002802DA404273
:1003D00013A507E031688A0701D512A502E0490795
:1003E00004D511A5012401E0AFF3008000210A2209
:1003F00006F1240709E0B0FBF2FCB0FBF2F302FBCC
:100400001C00303078541846491C0028F3D123468C
:100410002A463046BDE8F04100F035BA0000000041
:100420002D0000002B000000200000000FB400B5DC
:100430008DB010A9099000910B904FF0FF300A90F9
:1004400000200C90064878440690064878446A4696
:1004500007900F9909A800F0BFFA0DB05DF814FBE2
:10046000AF050000C70500002DE9FF5F1D464FF0F6
:10047000FF3B91464FF000085F46D5E90146A96968
:1004800001987F1C8847296A824688470028F6D150
:10049000BAF1FF3F0CD0002E24F4C06419DD6006D1
:1004A00014D5BAF12B0F09D0BAF12D0F0ED103E0FC
:1004B000584604B0BDE8F09F44F48064A9690198EF
:1004C0007F1C8847761E8246002E02DDBAF1300F6F
:1004D00003D0B9F1000F26D032E0A969761E019849
:1004E0007F1C44F400748847002E824605DDBAF173
:1004F000780F06D0BAF1580F03D0B9F1000F10D021
:100500001EE0B9F1000F02D0B9F1100F18D1A9699E
:10051000761E01987F1C24F40074884782461020C0
:1005200002E0082000E00A20814609E0A96908FBF2
:100530000908761E01987F1C44F40074884782469F
:10054000002E05DD4946504600F031FA0028EDDA6C
:10055000E96901988847A00502D46FF00100A8E777
:10056000E00725D1600613D5600502D5C8F100006B
:1005700000E0404629680A1D2A600968220501D565
:10058000087015E0220701D5088011E008600FE02F
:100590002868011D29600068210502D580F80080C7
:1005A00006E0210702D5A0F8008001E0C0F8008035
:1005B00038467EE7401ECAB210F8011F8A4202D0B8
:1005C0000029F9D10020704730B505460B462A4670
:1005D00013F8014B12F8010B08B1A042F8D01CB17E
:1005E000002802D06D1CF1E7284630BD10B5431C31
:1005F00002E010F8011B71B18107FAD14FF001320E
:1006000002C88C1A8C4314EAC211F9D0C01A0A0627
:1006100003D0C01E10BDC01A10BD0A0401D0801E38
:1006200010BD0902FCD0401E10BD032A40F23080EC
:1006300010F0030C00F0158011F8013BBCF1020F23
:10064000624498BF11F801CB00F8013B38BF11F8A4
:10065000013BA2F1040298BF00F801CB38BF00F8BB
:10066000013B11F0030300F02580083AC0F0088038
:1006700051F8043B083A51F804CBA0E80810F5E71C
:10068000121D5CBF51F8043B40F8043BAFF30080FF
:10069000D20724BF11F8013B11F801CB48BF11F874
:1006A000012B24BF00F8013B00F801CB48BF00F844
:1006B000012B704710B5203AC0F00B80B1E81850FC
:1006C000203AA0E81850B1E81850A0E81850BFF43C
:1006D000F5AF5FEA027C24BFB1E81850A0E81850DB
:1006E00044BF18C918C0BDE810405FEA827C24BF2F
:1006F00051F8043B40F8043B08BF7047D20728BFBD
:1007000031F8023B48BF11F8012B28BF20F8023B0B
:1007100048BF00F8012B70474FF000020429C0F0D9
:10072000128010F0030C00F01B80CCF1040CBCF123
:10073000020F18BF00F8012BA8BF20F8022BA1EB75
:100740000C0100F00DB85FEAC17C24BF00F8012B5A
:1007500000F8012B48BF00F8012B70474FF0000252
:1007600000B5134694469646203922BFA0E80C50A7
:10077000A0E80C50B1F12001BFF4F7AF090728BF82
:10078000A0E80C5048BF0CC05DF804EB890028BFFE
:1007900040F8042B08BF704748BF20F8022B11F027
:1007A000804F18BF00F8012B704710B5044610F0B9
:1007B000030F08BF11F0030F40F015804FF0013E0A
:1007C000121FC0F20E8051F8043BA3EB0E0C2CEA72
:1007D000030C1CEACE1C08BF40F8043BF0D0A1F18A
:1007E000040102F10402521E08DB11F8013B002B48
:1007F00000F8013BF7D11146FFF78EFF204610BDF0
:100800004FF0013C50F8042B51F8043B9A4221D19F
:10081000A2EB0C03934313EACC1317D150F8042B2B
:1008200051F8043B9A4215D1A2EB0C03934313EA0F
:10083000CC130BD150F8042B51F8043B9A4209D148
:10084000A2EB0C03934313EACC13DBD04FF0000070
:10085000704700BFD01A01BAB1FA81F101F0180156
:1008600022FA01F0CB40C1F12001DBB2C0B2C01AC4
:100870002CFA01F3D11A914311EAC311E6D1704762
:100880007047704770472DE9F0470D4699469246EC
:10089000044600F124080168880604D5E06921F0C7
:1008A0001001216000E00120A84201DD471B00E0AB
:1008B0000027A1697A1902EB0900081AA0612078C3
:1008C000C00602D42046AFF30080002608E0D4E939
:1008D00001211AF806009047206A401C761C20620D
:1008E0004E45F4DB2078C0060AD52046AFF30080E1
:1008F00006E0D4E9012130209047206A401C2062A4
:10090000381EA7F10107F4DC07E0D4E9012118F84B
:1009100005009047206A401C2062281EA5F10105B1
:10092000F3DC2046AFF300802078000602D50220D9
:10093000BDE8F0870120FBE701694A1C02610878E5
:10094000704700B58FB0CDE901310021059105490F
:100950007944CDE9031011466846FFF7CDFC0FB08E
:1009600000BD0000E5FFFFFF0A6802F8010B0A6006
:100970007047D1E900239A4202D2531C0B601070D9
:10098000704710B5436913B1AFF3008001E0FFF782
:10099000E7FC012010BD127800F124010A7000224A
:1009A0004A700122EDE711684FF0FF32E9E73A287B
:1009B00000D2303820F02002412A01D3A2F13700C2
:1009C000884201D34FF0FF307047000002681144A5
:1009D0001378016018467047D16005497944516128
:1009E00004497944116200211161114600F032B8C6
:1009F000EDFFFFFF5B000000426842B1016811F8A3
:100A0000013B23B1521EC0E9001218467047012174
:100A1000C160881E704742685AB1C368016843B913
:100A200083688B4205D0491E521CC0E90012002089
:100A300070474FF0FF307047004870474830002043
:100A400010B5044600F0E6F90068005D00F0010012
:100A500010BD00002DE9F34F4FF0000A0C4656463A
:100A60008DB001200C9001F10C000B9062690B9885
:100A700001219047051E2DD0252D2CD0216A8847B5
:100A8000C0B162690B9801219047216A884700280C
:100A9000F7D16269411E0B98904700E0761CA1696E
:100AA0000D988847216A88470028F7D1E1690D9899
:100AB0008847DBE7A1690D988847A842074601D11E
:100AC000761CD3E7E1690D9888477F1C02D1BAF103
:100AD000000F6FD06BE162690B9800273D463946E5
:100AE00090472A2804D162690B980121904701257B
:100AF000DFF8D08262690B9801219047A0F13001A4
:100B00000A290AD24745E5DC07EB870100EB4107DC
:100B1000303FDFD445F01005ECE7E90601D46FF073
:100B200000476C280AD04C2814D0682815D06A28B1
:100B30000DD074281CD07A281AD01DE062690B9859
:100B4000012190476C2802D045F0040514E045F0DF
:100B500002050DE045F020050AE062690B980121CD
:100B60009047682802D045F0080505E045F4006587
:100B700062690B9801219047C4E9015765283DD06F
:100B800019DC58287AD00CDC452837D004DC25281D
:100B900026D041289ED131E046282FD0472899D130
:100BA0002CE05B2877D0612828D063287CD064288B
:100BB00023D15AE0F6E06F2848D008DC66281DD023
:100BC00067281BD0692821D06E2816D127E070280D
:100BD00045D0732868D0752847D078280DD14DE0CE
:100BE000A1690D988847252805463FF469AFE1695A
:100BF0000D9888476D1C3FF46AAFD8E00D992346E5
:100C00006A466FF00100AFF30080C5E045F0400098
:100C100023464FF000026060A80736D43EE0E807A4
:100C20007FF447AF2068011D21600068290501D5C8
:100C300006701BE7290701D5068017E7A90703D52A
:100C4000F117C0E9006111E706600FE745F04000C9
:100C500023464FF008026060A80716D41EE040F655
:100C60000E0125EA0100606016E045F040002346D1
:100C70004FF00A026060A80707D40FE045F040007B
:100C80006060A80708D5234610220D996FF0010077
:100C9000AFF3008080E007E0102223460D996FF04B
:100CA0000100FFF7E1FB77E04FF0000963284F46B2
:100CB000C8464B46CB4602D05B2806D038E0E80653
:100CC00001D40120A060012732E06269D4F80CB0A1
:100CD0000B98012190475E2807D14FF00109494642
:100CE0006269D4F80CB00B989047216939B900219A
:100CF0000A4603AB43F82120491C0829FADBD8B384
:100D0000216949B308F1010862690B9801219047F4
:100D10005D28F4D1B9F1000F09D0002003A951F8E2
:100D20002020D24341F82020401C0828F7DB03ABE9
:100D30002069002820794FEA40701ED05B46224689
:100D4000CDF80080CDE901970D9900286FF00100E2
:100D500020DAAFF300801FE0C11703AA00EBD161D6
:100D60004B1121F01F0102EB8302411A136801208D
:100D7000884003431360C7E719E00D992246002815
:100D80006FF00100009702DAAFF3008004E0AFF3E8
:100D9000008001E0AFF3008000280ADA401C06D191
:100DA0000C9820B14FF0FF300FB0BDE8F08F5046E7
:100DB000FAE7E90701D10AF1010A064400200C9084
:100DC00054E60000CCCCCC0C70477546FFF734FEDF
:100DD000AE4605006946534620F00700854618B028
:100DE00020B5FFF75DFABDE820404FF000064FF058
:100DF00000074FF000084FF0000B21F00701AC4650
:100E0000ACE8C009ACE8C009ACE8C009ACE8C0096E
:100E10008D46704710B500F015F8001D10BD00BFDD
:100E2000CD44000010B50446AFF300802046BDE875
:100E30001040FFF7D5B9000001491820ABBEFEE70E
:100E4000260002000048704768300020FEE7704727
:100E500072B6FEE710B590F821100022022905D0E5
:100E60000421816380F82020012010BD01680B68F7
:100E700023F00E030B6001680B6823F001030B6085
:100E800090F84030C46B012101FA03F3636080F8ED
:100E9000211080F82020104610BD00002DE9F05FE1
:100EA00090F821100024022903D004218163012439
:100EB00085E001680A6822F00E020A6001680A688B
:100EC00022F001020A603F4E3E4FB215DFF8F4C037
:100ED000DFF8F090DFF8ECA0DFF8E8B0DFF8E4E04E
:100EE0000168783F13011502ACF1640CA9F15009B7
:100EF000AAF13C0AABF1280BAEF1140E4FF48018A6
:100F0000B14227D9B9420ED0614512D049451DD012
:100F1000514518D0594518D0714501D1424615E0C8
:100F2000294EB14201D1012210E0274E1436B142C0
:100F300001D110220AE0244E2836B14206D0224ABE
:100F40003C32914201D11A4600E02A461E49091F4F
:100F50000A602BE0B94213D0614517D0494522D031
:100F600051451DD059451DD0714501D142461AE069
:100F7000B14202D14FF0807215E0134EB14201D15F
:100F8000012210E0104E1436B14201D110220AE0C5
:100F90000D4E2836B14206D00B4A3C32914201D167
:100FA0001A4600E02A46074980394A60012180F844
:100FB0002110002180F82010416B01B188472046A4
:100FC000BDE8F09F800002400804024070B504466E
:100FD00000F0AEF90546601C02D0044800780444D5
:100FE00000F0A6F9401BA042FAD370BD1C000020FF
:100FF0002DE9F0430023454F0F2581E001229A405F
:101000000A407BD023F00304E619D6F808809C0739
:101010004FEA147C05FA0CF909EA0804DFF8F080BD
:10102000404502D14FF0000824E0DFF8E880404559
:1010300002D14FF001081DE0DFF8DC80404502D10D
:101040004FF0020816E0DFF8D480404502D14FF09F
:1010500003080FE0DFF8C880404502D14FF00408D4
:1010600008E0DFF8C080404502D14FF0050801E0FC
:101070004FF0060808FA0CF8A04522D12A4CD4F803
:1010800000C02CEA020CC4F800C0241DD4F800C033
:101090002CEA020CC4F800C0234C0C34D4F800C075
:1010A0002CEA020CC4F800C0241FD4F800C02CEABB
:1010B000020CC4F800C0D6F808C02CEA090CC6F827
:1010C00008C0FF2A01D8064601E000F104064FEAF5
:1010D000830401D9A4F12004D6F800C005FA04F86D
:1010E0002CEA080C4FF0040808FA04F84CEA080C43
:1010F000C6F800C0C46824EA0204C46003F1010316
:1011000031FA03F27FF47AAFBDE8F08300000140CA
:1011100000080140000C0140001001400014014093
:1011200000180140001C0140000401402DE9F84F67
:10113000DFF8C8910024A9F1040B23460F2709F119
:10114000040AABF1040ED1E00125A54006EA050230
:10115000AA4276D1DFF8A8C14E68A6EB0C08664516
:101160002BD00DDC032E34D005DC36B3012E19D084
:10117000022E2FD11BE0112E16D0122E2AD119E0EB
:10118000B8F5881F19D006DCB8F5803F15D0B8F542
:10119000801F1FD111E0B8F5001F0ED0B8F5041F55
:1011A00018D10AE0CB6815E0CB681B1D12E0CB68B4
:1011B00008330FE0CB680C330CE08B682BB1012BAC
:1011C0004FF0080303D0456104E0042302E0056109
:1011D00000E00023FF2A01D8064601E000F10406E2
:1011E0004FEA840501D9A5F12005D6F8008007FA59
:1011F00005FC28EA0C0803FA05F548EA0508C6F8D4
:1012000000804D68ED0070D53E4DAE6946F0010698
:10121000AE61AD6924F0030605F0010500953A4D75
:1012200006EB050CDCF80850A607360F07FA06F89F
:1012300025EA0805DFF8D480404503D14FF00008C7
:1012400025E052E0DFF8C880404502D14FF00108A8
:101250001DE0DFF8C080404502D14FF0020816E0E3
:10126000DFF8B480404502D14FF003080FE0DFF80B
:10127000AC80404502D14FF0040808E0DFF8A080C0
:10128000404502D14FF0050801E04FF0060808FA8A
:1012900006F848EA0508CCF808804D68D9F80060DF
:1012A000ED024D4601D5164300E096432E604D6891
:1012B000DAF80060AD02554601D5164300E09643CA
:1012C0002E604D68DBF80060AD035D4601D5164326
:1012D00000E096432E604D68DEF80060ED03754631
:1012E00001D5164300E096432E60641C0A6816463A
:1012F000E2407FF429AFBDE8F88F00000804014008
:1013000000001110001002400000014000080140E0
:10131000000C014000100140001401400018014081
:10132000001C01400AB1016170470904FBE700009D
:1013300001488068704700001C0000200248816856
:1013400002781144816070471C000020074810B5E6
:10135000016841F010010160032000F0B1F80F2096
:1013600000F006F800F04AF8002010BD002002400E
:1013700030B505461C4887B0816941F40061816140
:10138000806906A900F40060009001A800F040F90F
:1013900000F06EF91549164AB0FBF1F11548491EE7
:1013A0000260416040F2E7320021C0E90321816020
:1013B000816100F0F7FB040012D10E4800F03CFC04
:1013C00004000DD1192000F04EF8102D07D2002294
:1013D0002946192000F054F80748056000E0012470
:1013E00007B0204630BD00000010024040420F0010
:1013F000002C014038040020200000200F4808B5D0
:10140000816941F001018161816901F0010100916F
:10141000C16941F08051C161C069002200F0805073
:1014200000900F21901E00F02BF80548416821F034
:10143000E06141F00071416008BD00000010024011
:101440000000014000280DDB00F01F020121914047
:101450004009800000F1E020C0F88011BFF34F8FF9
:10146000BFF36F8F7047002809DB00F01F020121D6
:1014700091404009800000F1E020C0F80011704761
:10148000F0B40E4B1B680C46C3F30223C3F10705EF
:10149000042D00D90425191D072901D2002300E0DD
:1014A000DB1E012606FA05F1491E214099409E40A7
:1014B000761E16403143F0BC02F0B5BC0CED00E0E6
:1014C000064900F0070208684FF6FF03184040EA9B
:1014D0000220034A10430860704700000CED00E052
:1014E0000000FA052DE9F0470F46050061D0434E94
:1014F000306800F00700B84209D2306820F00700D9
:1015000038433060306800F00700B84251D1286895
:101510003B4C810712D5400703D5606840F4E0607A
:1015200060602878000703D5606840F46050606010
:101530006068A96820F0F000084360602878C00760
:1015400028D06868012810D02168022810D08907A7
:1015500000292EDA616821F0030101436160FFF781
:10156000E7FE804641F288390DE021688903EFE704
:101570008901EDE7FFF7DCFEA0EB0801494502D940
:101580000320BDE8F0876068696800F00C00B0EBEC
:10159000810FEFD1306800F00700B8420BD93068F6
:1015A00020F0070038433060306800F00700B84290
:1015B00001D00120E5E72878400705D56068E96893
:1015C00020F4E060084360602878000706D5606872
:1015D000296920F4605040EAC100606000F058F8CA
:1015E0006168084AC1F30311515CC84006490860AC
:1015F00006480068FFF7BCFE0020C2E7002002405A
:1016000000100240D65300082800002020000020CF
:101610000F2202600C4A536803F0030343605368CF
:1016200003F0F0038360536803F4E063C36052681F
:101630004FF4E06303EAD20202610448006800F05C
:1016400007000860704700000010024000200240C0
:101650000448054900684968044AC1F30221515C05
:10166000C84070472800002000100240E6530008E0
:101670000448054900684968044AC1F3C221515C25
:10168000C84070472800002000100240E6530008C0
:101690000E4A51680E4801F00C03042B11D0082BA0
:1016A0000FD10C48C1F38343C903C05C0AD551680C
:1016B000084AC1F34041921E515C054A5043B0FBB9
:1016C000F1F07047044948437047000000100240A1
:1016D00000127A00C653000800093D002DE9F84FBA
:1016E000040070D02078C04DC00749D06868C0F3AE
:1016F0008100012807D06868C0F38100022809D161
:101700006868C00306D52868800339D5606800285A
:10171000E7D035E06068B0F5803F0BD010B1B0F590
:10172000A02F11D0286820F480302860286820F489
:10173000802002E0286840F480302860606890B122
:10174000FFF7F6FD06460AE0286840F4802028608E
:10175000F0E700BFFFF7ECFD801B642873D8286812
:101760008003F7D50CE0FFF7E3FD064605E000BF78
:10177000FFF7DEFD801B6428F0D828688003F7D4CB
:1017800020789A4E80074FF001094FF0000839D5B4
:10179000686810F00C0F07D06868C0F38100022859
:1017A00009D16868C00306D42868800714D5206969
:1017B000012808D110E02069B0B1C6F80090FFF709
:1017C000B7FD074605E00AE1FFF7B2FDC01B02289E
:1017D000C4D828688007F7D52868616920F0F80028
:1017E00040EAC10028600DE0C6F80080FFF7A0FDC8
:1017F000074604E0FFF79CFDC01B022823D8286899
:101800008007F7D4207800072CD57948A169D9B191
:10181000C0F80090FFF78CFD074604E0FFF788FD55
:10182000C01B02280FD8686A8007F7D571484FF4AB
:10183000FA510068B0FBF1F0009000BF0098411E23
:101840000091FAD20EE080E0C0F80080FFF770FD52
:10185000074604E0FFF76CFDC01B022875D8686AD4
:101860008007F7D42078400760D5E8690027C000DA
:1018700008D4E86940F08050E861E869012700F089
:10188000805000905C480168C90513D40168834604
:1018900041F480710160FFF74BFD824606E000BF16
:1018A000FFF746FDA0EB0A0064284ED8DBF80000E5
:1018B000C005F5D5E06801280AD008B1052813D085
:1018C000286A20F001002862286A20F0040002E063
:1018D000286A40F001002862E06841F2883B98B134
:1018E000FFF726FD82460BE0286A40F004002862DC
:1018F000EEE700BFFFF71CFDA0EB0A0159455AD8DF
:10190000286A8007F6D50CE0FFF712FD824605E055
:10191000FFF70EFDA0EB0A0159454CD8286A800755
:10192000F6D41FB1E86920F08050E861E06988B31F
:101930006968C1F38101022944D00228C6F8608099
:1019400004D0FFF7F5FC044638E034E0FFF7F0FC84
:10195000074604E0FFF7ECFCC01B02282BD82868E0
:101960008001F7D4206AB0F5803F05D16868A1688E
:1019700020F4003008436860D4E90801084369682E
:1019800021F4741108436860C6F86090FFF7D0FC3A
:10199000044606E025E000BFFFF7CAFC001B022852
:1019A00009D828688001F7D51BE000BFFFF7C0FC0D
:1019B000001B022802D90320BDE8F88F28688001A7
:1019C000F4D40EE00128F7D06868226A00F4803170
:1019D000914204D1616A00F47010884201D0012064
:1019E000EAE70020E8E70000001002400000424261
:1019F00080044242280000200070004070B50400BE
:101A000009D0606A002540B125616561A56294F83E
:101A1000510040B10CE0012070BD6068B0F5827FDC
:101A2000F4D0E561F2E784F85050204600F040F829
:101A3000022084F851002068016821F04001016013
:101A4000A088218900F4827001F404410843A1892F
:101A500001F400610843217C01F002010843217D6B
:101A600001F001010843218B01F400710843217F3B
:101A700001F03801084394F8201001F08001084378
:101A8000218D01F40051084321680860A0690421F8
:101A900001EA1040216848602068C16921F40061B2
:101AA000C1616565012084F85100002070BD00000F
:101AB00030B585B00024009401940294039400682A
:101AC0001549884225D11548C16941F48041C16159
:101AD000C16901F480410491816941F0080181618B
:101AE00080690F4D00F0080004904FF420400090F2
:101AF000022001900320039069462846FFF716FB59
:101B00004FF48040CDE90004694628460294FFF76F
:101B10000DFB05B030BD0000003800400010024051
:101B2000000C01407047704770B590F83C20012AC6
:101B30002CD0012480F83C40022280F83D2003682C
:101B40005A689D6822F070060A6832435A60104B4A
:101B500002689A420ED00F4B9A420BD0B2F1804FDE
:101B600008D00D4B9A4205D00C4B9A4202D00C4B38
:101B70009A4204D1496825F080031943916080F8A6
:101B80003D40002180F83C10084670BD022070BD29
:101B9000002C0140003401400004004000080040D7
:101BA000000C004010B5040003D094F83D0010B1C3
:101BB00007E0012010BD002084F83C00204600F022
:101BC0001FF8022084F83D00211D206801F0D8FE96
:101BD000012084F8460084F83E0084F83F0084F831
:101BE000400084F8410084F8420084F8430084F8FF
:101BF000440084F8450084F83D00002010BD00003A
:101C000008B50068B0F1804F12D10A48C16941F0AF
:101C10000101C161C069002200F0010000900521AE
:101C20001C20FFF72DFCBDE808401C20FFF71BBC63
:101C300008BD00000010024090F83D10012901D0BD
:101C400001207047022180F83D100168CA6842F007
:101C50000102CA6000680E4988420ED00D498842D0
:101C60000BD0B0F1804F08D00B49884205D00B490A
:101C7000884202D00A49884204D1816801F00701F4
:101C8000062903D0016841F001010160002070477E
:101C9000002C0140003401400004004000080040D6
:101CA000000C004070B5044690F83C000025012867
:101CB00017D0012684F83C60022084F83D0020689B
:101CC000826822F0770222F47F42826008685028FE
:101CD00038D00DDC20284FD005DC90B3102811D16E
:101CE0004AE0022070BD302846D040280AD13BE0AF
:101CF00060282FD070280DD0B0F5805F03D0B0F5EC
:101D0000005F12D0012584F83D60002084F83C007B
:101D1000284670BDCB68D1E90121206801F07EFE24
:101D20002068816841F0770109E0CB68D1E90121A1
:101D3000206801F073FE2068816841F48041816071
:101D4000E1E719E0CA684968206801F079FE50218E
:101D5000206806E0CA684968206801F082FE6021B8
:101D6000206801F065FECEE7CA684968206801F086
:101D700067FE40212068F4E7226801461046F0E73C
:101D800070472DE9F04104460068C66805694FF0C8
:101D90000007A90713D5B10711D5F91E016101206C
:101DA0002077206880698007204602D0FFF7E8FF8F
:101DB00004E000F07EF8204600F07CF82777680702
:101DC00016D5700714D521686FF004000861022051
:101DD00020772068806910F4407F204602D0FFF70A
:101DE000CFFF04E000F065F8204600F063F82777A5
:101DF000280715D5300713D521686FF00800086152
:101E0000042020772068C0698007204602D0FFF7B1
:101E1000B7FF04E000F04DF8204600F04BF82777BC
:101E2000E80616D5F00614D521686FF01000086199
:101E3000082020772068C06910F4407F204602D037
:101E4000FFF79EFF04E000F034F8204600F032F87F
:101E50002777E80708D0F00706D021686FF0010067
:101E60000861204600F028F8280608D5300606D577
:101E700021686FF0800008612046FFF753FE680676
:101E800008D5700606D521686FF04000086120462D
:101E900000F026F8A8060AD5B00608D521686FF02C
:101EA000200008612046BDE8F041FFF73CBEBDE8D8
:101EB000F08170477047000010B50446006807497C
:101EC000884201D1FFF73AFA2068B0F1804F03D180
:101ED000BDE8104002F010BD10BD0000002C014014
:101EE0007047704710B5040015D0242084F84100D5
:101EF0002068C16821F40051C160204600F076F9E5
:101F00000020606484F8410084F8420044F8300FF7
:101F10006060207410BD012010BD7047F8B50168E5
:101F200004460868CA684B6910F00F0F4FF00005AF
:101F300059D003F0010602F49077374365D0C1070A
:101F400005D0D10503D5616C41F001016164410701
:101F500005D5D90703D0616C41F0020161648107A6
:101F600005D5D90703D0616C41F004016164010714
:101F700007D502F02001314303D0616C41F0080124
:101F80006164616C00293AD0800604D5900602D5C0
:101F9000204601F0B6FD20684069616CC0F38010F6
:101FA000090700D460B3204601F084FD2068406931
:101FB000400621D52068143050E8001F21F0400170
:101FC00040E80012002AF5D1E06BA8B16D494163E9
:101FD000E06BFEF763FF002811D0E06B416B01B0AE
:101FE000BDE8F040084783060FD593060DD520467F
:101FF000BDE8F84001F085BD2046FFF78EFFF8BD33
:102000002046FFF78AFF6564F8BD266B2023012E6A
:102010007CD1C6067AD5D60678D50868486800907F
:1020200048694FF00206400640D5E16B08684068F9
:102030000004000CE8D0A28D8242E5D9E0858869D1
:1020400020282DD020680C3050E8001F21F480712A
:1020500040E80012002AF5D12068143050E8001F33
:1020600021F0010140E80012002AF5D12068143067
:1020700050E8001F21F0400140E80012002AF5D18D
:1020800084F84230256320680C3050E8001F21F0AE
:10209000100140E80012002AF5D1E06BFEF7DAFEED
:1020A0006663A08DE18D401A81B22AE0A08DE18D9A
:1020B000401A81B2E08D0028A6D00029A4D0226861
:1020C0000C3252E8000F20F4907042E80007002F15
:1020D000F5D12068143050E8002F22F0010240E8CA
:1020E0000027002FF5D184F84230256320680C309A
:1020F00050E8002F22F0100240E80023002BF5D119
:1021000066632046FFF7EDFEF8BDFFE705062BD519
:10211000150629D594F841002128F5D1A068B0F51D
:10212000805F01D12069B0B1206A411C2162216821
:1021300000784860E08C401E0004000CE084E3D18D
:102140002068C16821F08001C1602068C16841F049
:102150004001C160D8E7206A0088C0F308004860E9
:10216000206A801C2062E5E74006CDD55006CBD51D
:10217000CA68204622F04002CA6084F8413000F06C
:1021800055F9C1E7A53A000870B5040004D094F8E9
:102190004100002510B106E0012070BD84F84050D8
:1021A000204600F055F8242084F841002068C168DA
:1021B00021F40051C160204601F004FD206801694E
:1021C00021F4904101612068416921F02A014161B7
:1021D0002068C16841F40051C1606564202084F822
:1021E000410084F842006563002070BD10B5124ABA
:1021F0000168124891420DD1C16921F48011C16179
:1022000081140F48FEF7F4FE04210E48FEF7F0FE9D
:1022100035200BE00C4A91420CD1816921F48041B8
:102220008161C0210948FEF7E3FE2520BDE810408A
:10223000FFF708B910BD0000005000400010024038
:10224000001001400014014000380140000C014022
:1022500030B585B000240094019402940394354D68
:102260000368354802210322AB422ED1C36943F4EF
:102270008013C361C36903F480130493836943F03B
:1022800010038361836903F010030493836943F0AF
:10229000200383618069039200F020000490C8024B
:1022A000CDE9000169462548FEF740FF0420CDE94D
:1022B0000004694622480294FEF738FF00220521F7
:1022C0003520FFF7DDF8352030E01E4DAB422FD131
:1022D000836943F480438361836903F480430493F7
:1022E000836943F0080383618069174D00F008009B
:1022F00004904020CDE90001039269462846FEF78C
:1023000015FF8020CDE90004694628460294FEF7B7
:102310000DFF0E48416841F0E06141F00401416069
:10232000002205212520FFF7ABF82520FFF79BF8B9
:1023300005B030BD005000400010024000100140C8
:102340000014014000380140000C01400000014031
:1023500090F84230202B01D00220704721B11AB1F1
:102360000023036301F08ABC01207047006805491F
:10237000884201D101F0BCB90349884201D101F082
:1023800091BA704700500040003801402DE9F843F1
:10239000044690F84100984616460D46202802D083
:1023A0000220BDE8F88385B17EB100206064212061
:1023B00084F84100FEF7BCFFA6848146E684A0684D
:1023C0002027B0F5805F02D003E00120E9E7206913
:1023D00010B12E4600250EE000260CE0802120469C
:1023E00001F067FCA8B9C6B116F8010B2168486076
:1023F000E08C401EE084E08C4B464FF00002CDF8AC
:1024000000800028EAD14FF04001204601F051FC45
:1024100040B184F841700320C3E735F8020BC0F3E4
:102420000800E3E784F841700020BAE77047FEE750
:1024300030B5284DABB023AC95E80F0084E80F0011
:10244000002123A801F038FD234C1035606195E888
:102450000F0027AD85E80F00002127A801F02CFD13
:102460001C49A0611C2220316846FEF723F9002197
:10247000684601F0ADFD174920601C223C3107A8D9
:10248000FEF718F9002107A801F0A2FD11496060CC
:102490001C2258310EA8FEF70DF900210EA801F0FC
:1024A00097FD0C49A0601C22743115A8FEF702F9B3
:1024B000002115A801F08CFD0649E0601C22903136
:1024C0001CA8FEF7F7F800211CA801F081FD20618F
:1024D0002BB030BD18530008000000202DE9F04358
:1024E00085B00024344800940194029403948169D7
:1024F00041F010018161816901F01001049181694D
:1025000041F020018161816901F02001049181691C
:1025100041F008018161816901F00801049181693C
:1025200041F0040181618069244F00F004004FF400
:1025300004750490012229463846FEF7F3FEDFF8C1
:1025400080804FF40046002231464046FEF7EAFE06
:10255000DFF87090002218214846FEF7E3FE0122C2
:1025600020214846FEF7DEFE1120CDE9005001256E
:102570000320CDE9025069463846FEF7D7FD2020FA
:10258000CDE90004694638460294FEF7CFFDCDE957
:1025900000650226CDE9024669464046FEF7C6FDC3
:1025A0003820CDE90005CDE9024669464846FEF7E8
:1025B000BDFD05B0BDE8F0830010024000100140F1
:1025C00000080140000C01400F4810B50D490160A2
:1025D0004FF48271416000218160C1604FF400724C
:1025E0000161C0E90512C1610162416281620A2193
:1025F000C162FFF703FA002803D0BDE81040FEF7E0
:1026000027BC10BD003800400803002010B586B07C
:1026100000241648009401940294039404944FF00B
:102620008041059401604721C0E9011440F2E7317F
:10263000C0E903148461FFF7B5FA08B1FEF708FC9E
:102640004FF48050009069460848FFF72BFB08B113
:10265000FEF7FEFB049404A904480594FFF764FA0E
:10266000002801D0FEF7F4FB06B010BD6003002087
:102670000C4810B50A4901604FF4E1314160002176
:1026800081600C22C160C0E904128161C161FFF761
:102690007BFD002803D0BDE81040FEF7D9BB10BD7C
:1026A00000500040A80300200C4810B50A49016002
:1026B0004FF4E1314160002181600C22C160C0E92A
:1026C00004128161C161FFF75FFD002803D0BDE8FE
:1026D0001040FEF7BDBB10BD00380140F0030020E4
:1026E000FEE7FEE770B5724CADF53C7D6088A080DA
:1026F0004FF4FA652A4602A96EA000F09FFF2A4611
:1027000002A970A000F09AFF76A178A0CDE900019F
:1027100000237AA2802182A8FDF7D4FD0120207039
:1027200041F2883202A982A800F088FF0325002820
:1027300074D07BA102A8FDF747FF0028F8D04FF422
:102740000076314602A8FEF709F847F230533246C8
:1027500002A974A000F0E6FF002874D074A102A8BA
:10276000FDF732FF20B976A102A8FDF72DFF38B1A1
:10277000022020706088A08001200DF53C7D70BD96
:1027800068A102A8FDF720FF00285CD06B4601AAD3
:102790006FA1FDF74BFE022855D101F071F8012021
:1027A000FEF714FC6EA001F04FF86CA26421A2A801
:1027B000009BFDF787FDA2A801F046F872A001F08A
:1027C00043F8009840F23222A0F23221904253D0D6
:1027D00021DC40F22B22A0F22B2190423ED012DCD1
:1027E000B0F50A7F34D007DCC8B1A0F500702638F8
:1027F00021D001285AD129E0A0F50070293829D02C
:10280000012853D128E0072950D2DFE801F04F29F1
:102810002B2D2F3133000D2948D201E013E008E0C1
:10282000DFE801F0442C2E30323436383A3C3E405A
:10283000420056A000E05AA001F006F85CA001F0AA
:1028400003F801F00BF82570002096E759A0F3E794
:102850005DA0F1E761A0EFE765A0EDE76AA0EBE717
:102860006FA0E9E773A0E7E778A0E5E77CA0E3E7DE
:1028700080A0E1E785A0DFE78BA0DDE791A0DBE7A3
:1028800098A0D9E79AA0D7E79EA0D5E7A3A0D3E761
:10289000A8A0D1E7ABA0CFE7AFA0CDE7B4A0CBE72E
:1028A000B7A0C9E7BCA0C7E7C0A0C5E7C2A0C3E7FF
:1028B000A400002041542B5149434C4F53453D3017
:1028C0000D0A000041542B515552434346473D22C7
:1028D000757263706F7274222C22616C6C220D0A07
:1028E000000000003335383134000000382E313319
:1028F000352E31302E3138330000000041542B5139
:10290000494F50454E3D312C25642C2254435022D2
:102910002C222573222C25732C302C300D0A00001C
:102920004F4B00002B51494F50454E3A00000000DC
:102930002B51494F50454E3A20302C3000000000BA
:102940002B51494F50454E3A20302C20300000008A
:102950002B51494F50454E3A2025642C25640000E8
:102960005B4552524F525D20436F6E6E65637469D2
:102970006F6E206661696C65642077697468206396
:102980006F64652000000000202800004F70657211
:102990006174696F6E207375636365737300000003
:1029A000556E6B6E6F776E206572726F72000000ED
:1029B000290D0A004F7065726174696F6E20626C38
:1029C0006F636B6564000000496E76616C6964201A
:1029D000706172616D657465727300004D656D6F35
:1029E0007279206E6F7420656E6F756768000000E5
:1029F000536F636B6574206372656174696F6E20D9
:102A00006661696C656400004F7065726174696F1E
:102A10006E206E6F7420737570706F7274656400D1
:102A2000536F636B65742062696E64206661696CC4
:102A300065640000536F636B6574206C6973746523
:102A40006E206661696C656400000000536F636B03
:102A50006574207772697465206661696C656400CD
:102A6000536F636B65742072656164206661696C85
:102A700065640000536F636B657420616363657008
:102A800074206661696C6564000000005044502049
:102A9000636F6E74657874206F70656E696E672001
:102AA0006661696C6564000050445020636F6E7409
:102AB00065787420636C6F73757265206661696CEC
:102AC00065640000536F636B6574206964656E74A0
:102AD00069747920686173206265656E207573651D
:102AE00064000000444E53206275737900000000BA
:102AF000444E53207061727365206661696C656431
:102B000000000000536F636B657420636F6E6E6529
:102B10006374206661696C6564000000536F636BC9
:102B2000657420686173206265656E20636C6F73E5
:102B3000656400004F7065726174696F6E20627524
:102B4000737900004F7065726174696F6E207469EB
:102B50006D656F757400000050445020636F6E7493
:102B60006578742062726F6B656E20646F776E009B
:102B700043616E63656C2073656E64696E67000007
:102B80004F7065726174696F6E206E6F7420616C36
:102B90006C6F77656400000041504E206E6F7420AA
:102BA000636F6E666967757265640000506F72745A
:102BB0002062757379000000556E6B6E6F776E0042
:102BC0002DE9F04FADF52D7D4022CE4992A8FDF7BD
:102BD00071FDCC4920224031A2A8FDF76BFDC94907
:102BE0004022603182A8FDF765FD4FF48071C64830
:102BF000FDF792FDDFF814930024A9F80240A9F82C
:102C00000440C348FFF76EF900F03AFE0220FEF7D9
:102C1000DDF9C0A000F018FEBFA000F015FEC8A0AE
:102C200000F012FEBCA000F00FFECEA000F00CFEE3
:102C300000254FF47A773846FEF7C8F9CEA000F0A9
:102C400003FE6D1CEDB20F2DF5D3CCA000F0FCFD02
:102C500000F004FE0220FEF7B9F9FFF709FD642039
:102C6000FEF7B4F9AA4800684068A8490122491C47
:102C7000A748FFF76DFB00F003FE0220FEF7A6F960
:102C8000C1A000F0E1FDCAA000F0DEFD00264FF477
:102C9000FA784FF4FA652A466946CCA000F0CEFCDB
:102CA00060B1CCA16846FDF78FFC38B1CAA000F036
:102CB000CBFDCBA000F0C8FD00265CE04046FEF74F
:102CC00085F9761CF6B2032EE5D3CFA000F0BCFD4B
:102CD000D0A000BF00F0B8FD8EA000F0B5FD8EA022
:102CE00000F0B2FDD4A000F0AFFD8BA000F0ACFD71
:102CF000D8A000F0A9FD92A800F0A6FD85A000F0E4
:102D0000A3FDD7A000F0A0FDA2A800F09DFD81A02A
:102D100000F09AFDD5A000F097FD82A800F094FD88
:102D20007CA000F091FD7CA000F08EFDD2A000F010
:102D30008BFD0A20FEF74AF9B9F80210A9F8041031
:102D400074A000F081FDD4A000F07EFDFFF7CAFC66
:102D500000287DD0D8A000F077FDDCA000F074FD45
:102D6000DEA000F071FDDEA000F06EFD69A000F0B5
:102D70006BFDDDA086E22A466946E5A000F05EFC18
:102D800058B1E7A16846FDF71FFC20B9E8A16846E5
:102D9000FDF71AFC08B1EAA01CE02A466946EDA03E
:102DA00000F04CFC58B1EEA16846FDF70DFC20B9CF
:102DB000EEA16846FDF708FC08B1EFA00AE0F3A019
:102DC00000F042FD2846FEF701F9761CF6B2142EFB
:102DD000D1D3EFA000F038FDF4A000F035FD40F6AF
:102DE000B83B5A466946F8A000F028FC00283DD0C0
:102DF0006846F8A60FF2DC3A0DF512783146FDF779
:102E0000E3FB050014D03046FDF7F0FB46195146B0
:102E10003046FDF7D9FB58B1801B85B23F2D00DD50
:102E20003F252A4631464046FDF7BFFC08F80540DD
:102E3000E9A000F009FD92A800F006FD35A000BF52
:102E400000F002FDE5A000F0FFFC43F6982200E050
:102E500017E26946EAA000F0F1FB00282ED05DA140
:102E60006846FDF7B1FB18B15BA007E0EAA0E7E711
:102E7000ECA16846FDF7A8FB10B1ECA000F0E4FC63
:102E8000EFA000F0E1FC00253846FEF79FF86D1C2E
:102E9000EDB20A2DF8D35A466946F1A000F0CEFBF8
:102EA00078B3F3A16846FDF78FFB40B32221FDF70D
:102EB00081FB20B30021A2AA401C04E0D6A0DDE7DC
:102EC0005354401C491C03781BB1222B01D01F29ED
:102ED000F6DB54540178222911D1401CFDF76AFB1E
:102EE00068B1002182AB401C02E05A54401C491CCE
:102EF00002781AB1222A01D03F29F6DB5C5436A0B1
:102F0000E8E6BBE1F0530008482F0020A4000020B1
:102F1000A80300200D0A00003D3D3D3D3D3D3D3DE7
:102F20003D3D3D3D3D3D3D3D3D3D3D3D3D3D3D3DD1
:102F30003D3D3D3D3D3D3D3D3D3D0D0A0000000018
:102F40002020524732303055203447204761746585
:102F5000776179205374617274696E672E2E2E0D1D
:102F60000A000000486172647761726520626F6FC9
:102F7000743A205B000000003D0000005D20446FBB
:102F80006E650D0A0D0A00003D3D3D20524732306E
:102F90003055203447204D6F64756C652053656C47
:102FA000662D54657374203D3D3D0D0A0D0A0000E9
:102FB0005B312F355D2054657374696E6720415411
:102FC00020636F6D6D616E642E2E2E0041540D0ACC
:102FD000000000004F4B0000204F4B0D0A00000086
:102FE0005B322F355D20436865636B696E67206EC9
:102FF0006574776F726B2072656769737472617440
:10300000696F6E2E2E2E0000204641494C45440D1E
:103010000A0000000D0A4572726F723A2052473260
:10302000303055206E6F7420726573706F6E6469F6
:103030006E67210D0A0000002020524732303055C3
:103040002034472047617465776179205265616457
:10305000790D0A004F70657261746F72203A20001A
:103060004950763420202020203A200049507636DE
:1030700020202020203A20005472616E737061720B
:10308000656E74206D6F646520656E61626C656449
:103090002E0D0A0D0A0000005B5443505D20436F63
:1030A0006E6E656374696E6720746F2073657276E7
:1030B00065722E2E2E0D0A005B5443505D20436F27
:1030C0006E6E656374656420746F2000382E313332
:1030D000352E31302E313833000000003A00000028
:1030E00033353831340000005B5443505D20544385
:1030F00050207472616E73706172656E74206D6FB2
:10310000646520656E61626C65642E0D0A000000C6
:1031100041542B4335475245473F0D0A00000000FC
:103120002B4335475245473A20302C3100000000F0
:103130002B4335475245473A20302C3500000000DC
:103140002052656769737465726564202835472964
:103150000D0A000041542B43455245473F0D0A00DC
:103160002B43455245473A20302C31002B434552E2
:1031700045473A20302C35002052656769737465E5
:1031800072656420283447290D0A00002E000000D3
:10319000204641494C454420286E6F742072656773
:1031A00069737465726564290D0A00005B332F35FD
:1031B0005D205175657279696E67206F7065726107
:1031C000746F722E2E2E000041542B434F50533FEC
:1031D0000D0A000022000000200000005B342F35A3
:1031E0005D2041637469766174696E6720646174FF
:1031F0006120636F6E6E656374696F6E2E2E2E0094
:1032000041542B514E455444455643544C3D312C6A
:10321000312C310D0A0000002054696D656F757402
:103220000D0A00004552524F5200000020416C72BE
:1032300065616479206163746976650D0A00000038
:103240005B352F355D205175657279696E67204950
:103250005020616464726573732E2E2E000000008E
:1032600041542B434750414444520D0A0000000092
:103270002B434750414444523A000000AFF26800EB
:1032800028E509A000F0E0FA0DA000F0DDFA0A2020
:10329000FDF79CFE00F0E2FA0220FDF797FE0DF527
:1032A0002D7DBDE8F08F00005B5443505D20436FDF
:1032B0006E6E656374696F6E206661696C6564210A
:1032C0000D0A000030B5A1B00C46802900D37F2440
:1032D000014622466846FDF7A8F9002568460DF824
:1032E00004500D21FDF766F900B105700A2168460A
:1032F000FDF760F900B1057000F0C2FA0120FDF79A
:1033000065FE22A16846FDF77BFA234C08B323A192
:103310006846FDF775FA18B323A16846FDF770FA01
:10332000002824D023A16846FDF76AFA002825D09A
:1033300023A000F089FA684600F086FA24A000BFB6
:1033400000F082FA0220FDF741FE00F087FA21B07A
:1033500030BD012210212046FDF7E4FF1DA0EFE75C
:10336000002210212046FDF7DDFF1FA0E8E7012223
:1033700008212046FDF7D6FF20A0E1E70022082122
:103380002046FDF7CFFF22A0DAE7000052454C416E
:1033900059315F4F4E000000000C014052454C4136
:1033A00059315F4F4646000052454C4159325F4FFC
:1033B0004E00000052454C4159325F4F46460000D6
:1033C0005B434D445D20556E6B6E6F776E3A200007
:1033D0000D0A00005B434D445D2052454C4159317C
:1033E000204F4E0D0A0000005B434D445D205245C6
:1033F0004C415931204F46460D0A00005B434D4475
:103400005D2052454C415932204F4E0D0A000000BC
:103410005B434D445D2052454C415932204F464656
:103420000D0A0000F0B5ADF5017D0026214C4FF4EA
:10343000807736E0E088FF282ED21F499DF80022D1
:103440000A54401C80B2E0800E541CA11A48FDF7BB
:10345000BBF830B33220FDF7B9FD40F2FF116846EA
:1034600000F03CF8050017D000F00AFA0120FDF743
:10347000ADFD16A000F0E8F92946684600F0BEF957
:1034800015A000F0E1F90220FDF7A0FD00F0E6F93B
:1034900029466846FFF716FFE68039460648FDF7DD
:1034A0003BF980A800F0B4F80028C3D10DF5017DE8
:1034B000F0BD0000A4000020482E00202B514955EB
:1034C00052433A2022726563762200000D0A5B5453
:1034D00043502052585D20000D0A00002DE9F04FA6
:1034E0000024ADF50D7D0D4682948346009127465C
:1034F00023463AA2202183A8FCF7E4FE4FF4007192
:1035000001A8FDF72BF939484188818083A8FDF790
:103510006DF882B24FF47A7383A93548FEF736FF0F
:103520006420FDF753FDFDF703FFB84606460DF195
:10353000040A4FF4FA674FF4FF7913E08BA800F008
:1035400067F860B19DF82C120AF80410641CA4B24C
:1035500028A10AF8048001A8FDF736F848B901202F
:10356000FDF734FDFDF7E4FE801BB84201D24C4567
:10357000E4D922A101A8FDF727F804002BD082AAE4
:1035800020A1E01DFCF752FF012824D182980028D9
:1035900021DD0A212046FDF70DF8E0B1401C06466A
:1035A00019A1FDF711F8B0B1841BAC4200DB2C4629
:1035B0008298844203DAA84200DB28460446224669
:1035C00031465846FDF731F80BF80480E0B20DF5AE
:1035D0000D7DBDE8F08F0020F9E7000041542B512C
:1035E0004952443D25642C25640D0A00A4000020A6
:1035F000A80300204F4B0D0A000000002B51495238
:10360000443A0000256400000D0A4F4B0000000002
:1036100008498A884B889A4209D0074A8B88D25C2D
:1036200002708888401CC0B288800120704700204A
:1036300070470000A4000020482F00202DE9F84327
:103640001646894607460024FDF772FE05464FF4EC
:1036500000714846FDF760F81A4841888180384675
:10366000FCF7C4FF82B24FF47A7339461648FEF76E
:103670008DFE4FF4FF77A0461DE06846FFF7C8FFB8
:10368000B0B1BC4214D89DF8001009F80410641CB5
:10369000A4B20EA109F804804846FCF795FF20B9B2
:1036A0000CA14846FCF790FF10B10120BDE8F8835B
:1036B0000120FDF78BFCFDF73BFE401BB042DCD345
:1036C0000020F3E7A4000020A80300204F4B0D0AC0
:1036D000000000004552524F520D0A0001B564230C
:1036E000012269460148FEF751FE08BDA8030020EB
:1036F000094830B441888288491CC9B2914204D03B
:103700004278064B44881A5541800349012230BC57
:10371000491C0348FEF71CBEA4000020482F0020CF
:10372000A80300202DE9FF4F81B01F4691468B462C
:10373000FDF7FEFD002406462546A04649465846AC
:10374000FCF7EAFFA9F10109A24625E06846FFF768
:103750005FFF98B14C4511DA9DF800100BF804108A
:10376000641CA4B20BF804A0FDF7E2FD80465846A5
:103770000199FCF729FF08B1012500E04DB1FDF7E3
:10378000D7FDA0EB0800642803D9012005B0BDE8EF
:10379000F08F0120FDF71AFCFDF7CAFD801BB8422F
:1037A000D4D30020F2E7000010B56420FDF70EFC32
:1037B00000F054F80A20FDF709FCBDE81040012292
:1037C00001490248FEF7C4BD94000020F003002028
:1037D00008498A884B889A4209D0074A8B88D25C6C
:1037E00002708888401CC0B2888001207047002089
:1037F0007047000094000020482D002070B50C4652
:10380000054600F03DF80120FDF7E0FB002304E051
:10381000E85C00F00BF85B1C9BB2A342F8D30120DC
:10382000FDF7D4FBBDE8704000F018B805490A6800
:103830001206FCD5034A121D106008684006FCD52C
:10384000704700000038014000B5034602E05B1CF1
:10385000FFF7ECFF18780028F9D100BD10B5002261
:1038600020210548FDF75EFD0122BDE81040D1038F
:103870000248FDF757BD0000000C01400008014060
:1038800010B5012220210548FDF74CFD0122BDE8BD
:103890001040D1030248FDF745BD0000000C014077
:1038A00000080140094830B441888288491CC9B2E7
:1038B000914204D00278064B44881A55418030BCAE
:1038C000012202490348FEF743BD00009400002096
:1038D000482D0020F003002000F02BBA10B5502036
:1038E00080F31188BFF34F8FBFF36F8F01F0B0FBF0
:1038F00018B104494FF080500860002080F311880F
:1039000010BD000004ED00E030B58FB028216846FE
:10391000FCF724FF14210AA8FCF720FF012108046A
:10392000CDE900100024029402250491CDE907504E
:103930004FF4E01009906846FDF7D0FE08B172B66A
:10394000FEE70F20CDE90A054FF48060CDE90C4079
:1039500002210AA80E94FDF7C5FD002801D072B619
:10396000FEE70FB030BD70470148FEF70ABA00000D
:10397000380400200148FEF704BA0000600300206C
:10398000F0B50268204C214D214E224F224B4FF0C2
:10399000804CA04209D0984207D0604505D0A8428B
:1039A00003D0B04201D0B84204D122F0700E4A6870
:1039B00042EA0E02A04209D0984207D0604505D0E5
:1039C000A84203D0B04201D0B84203D122F44075DE
:1039D000CA682A434D6922F080022A4302608A683D
:1039E000C2620A688262A04201D0984201D109698C
:1039F0000163012141610169C90703D0016921F017
:103A000001010161F0BD0000002C014000040040F4
:103A100000080040000C00400034014010B58468EC
:103A200042EA032224F47F440A432243826010BD09
:103A3000826822F070020A4342F0070181607047F9
:103A400010B5036A046A24F001040462846924F056
:103A5000F00444EA021423F00A020A438461026279
:103A600010BD10B5036A046A24F01004046284696E
:103A700023F0A00324F4704444EA023243EA011123
:103A80008261016210BD00F05BB900F06DB900F019
:103A90007DB900F08DB900000148FEF73FBA000083
:103AA000A803002010B5406A0021C185C184FEF73B
:103AB00034FA10BD01680C3151E8002F22F49072E5
:103AC00041E80023002BF5D10168143151E8002FA3
:103AD00022F0010241E80023002BF5D1016B0129FE
:103AE00009D101680C3151E8002F22F0100241E8A1
:103AF0000023002BF5D1202180F842100021016322
:103B0000704708B590F84210222901D0022008BD64
:103B100082684FF480539A4201D1016921B1816AD0
:103B20009A421BD04AB10AE00268816A5268C2F325
:103B300008020A80816A891C08E0026972B1026881
:103B4000526802F07F020A70816A491C8162C18D4D
:103B5000491E0904090CC18503D01BE002685268A4
:103B6000F1E70168CA6822F02002CA600168CA68E9
:103B700022F48072CA6001684A6922F001024A6137
:103B8000202180F8421000214163026B012A03D0FA
:103B9000FEF7ECFB002008BD016301680C3151E821
:103BA000002F22F0100241E80023002BF5D101681C
:103BB0000A68D20602D50A6849680091818DFEF72D
:103BC00090F9E7E770B5044600680169E26821F4FE
:103BD0004051114301612169A068084361690843AC
:103BE0002168CA6841F20C639A430243CA602068A4
:103BF0004169A26921F44071114341611E49206865
:103C0000884202D1FDF734FD01E0FDF721FD00EB14
:103C1000C00101EB0012606864218000B2FBF0F388
:103C2000B3FBF1F36FF018067343B2FBF0F5B2FB90
:103C3000F0F605EB8305322303EB0515B5FBF1F533
:103C4000B6FBF1F605F0F00505EB0615B2FBF0F654
:103C5000B2FBF0F0B0FBF1F06FF01802504306EB4E
:103C6000800003EB0010B0FBF1F0216800F00F00C2
:103C70002844886070BD0000003801408162828560
:103C8000C28500214164222180F84210016921B1DE
:103C90000168CA6842F48072CA6001684A6942F0E9
:103CA00001024A610068C16841F02001C160002042
:103CB00070472DE9F843984617460D460446089E7E
:103CC00024E0701C22D0FDF733FBA0EB0800B042CB
:103CD0001AD8CEB12068C168490717D5802D15D0F4
:103CE000402D13D00168C94309070FD4016800258E
:103CF000406800902046FFF7DDFE0820606484F8ED
:103D000040500120BDE8F8830320FBE720680068ED
:103D100035EA000004D00020B842D2D00020F1E7FC
:103D20000120F9E70148FEF7F9B80000F003002090
:103D3000FEE74FF4FA74204600F0A6F8FBE7000017
:103D400008B5084CFFF76EFB6846FFF761FC28B129
:103D50000A229DF80010206800F00CF9012000F004
:103D600093F8EFE7180000200EB5074C6422684670
:103D7000216800F0B5F8DDE900101029F6D1C0B2D5
:103D8000FFF7ACFCF2E700001400002008B5074C78
:103D90006846FFF71DFD28B10A229DF80010206833
:103DA00000F0E8F8012000F06FF8F1E714000020BF
:103DB0000EB5174D0127174C00260A2268462968C0
:103DC00000F08EF8DDE9001010290FD020780028CF
:103DD000F3D000F065F86168401A0A28EDD9022096
:103DE00000F052F8FFF73AFD2670E6E700F0FF0812
:103DF000207828B9FFF744FD012000F045F827702E
:103E00004046FFF713FD00F04BF86060D5E7000077
:103E100018000020AC00002010B5FFF7C5FCBDE87D
:103E20001040FEF7CDBE0907090E002804DB00F1A3
:103E3000E02080F80014704700F00F0000F1E0204F
:103E400080F8141D7047EFF30580002800D0012092
:103E50007047FDF77BFAFFF757FDFEF73FFBFEF7D4
:103E6000B3FBFEF7D3FBFEF71FFCFEF701FCFFF7E9
:103E7000D3FFFEF7DDFA00F00EF8FEE70146002062
:103E8000842900D0C81C704710B500B9012000F08B
:103E90007BFC002010BD10B500F0C2FC002010BD5E
:103EA00010B5FFF7D0FF18B1BDE8104001F0C8B859
:103EB000BDE8104001F0BEB838B5D0E90112046881
:103EC0003AB1C3682BB100200090204600F0A1FD5C
:103ED00038BD2046BDE83840002200F079BD000022
:103EE0002DE9FF410D004FF00006CDE901650746C1
:103EF0001ED000240396501C1FD002B11446FFF7B9
:103F0000A2FF69464FF01008E8B103AA2846091D30
:103F100000F0A2FF012813D000960398E8B11449DD
:103F20004FF080500860BFF34F8FBFF36F8F14E0E6
:103F3000802031462A46009011E04FF0FF34DEE742
:103F4000CDF80080E9E722462846091D00F0E8FE8A
:103F5000012808D054B1402000909DE8070087E870
:103F60000700BDE8FF81CDF80080F6E70020F3E709
:103F700004ED00E037B5054682B000200090140043
:103F800000D10124FFF75FFF4FF0000388B16A46BC
:103F900003A9284600F064FE012811D1009890B1D1
:103FA0000A494FF080500860BFF34F8FBFF36F8F07
:103FB00009E0224603A9284600F0A2FD012802D00C
:103FC000FF2005B030BD0020FBE7000004ED00E05D
:103FD0007FB50D4604464169B0F9080081B1A16979
:103FE00071B1FFF74BFFD4E905128DE80700D4E962
:103FF00000102B46226900F0E4FF039004B070BD6E
:10400000FFF73CFF03A9CDE90001208A2B4682B2CD
:10401000D4E9001000F0A8FF012801D00020EDE74E
:104020000398EBE72DE9F041184C0F460546E6688A
:104030002068001D00F0B6FA38B9206890F82C10FE
:1040400001208840216981432161681C07D137B173
:104050002168BDE8F0410E48091D00F0E7BA20686C
:104060003544B5424560216805D2A06BBDE8F041FA
:10407000091D00F0C3BA606B091D00F0BFFAA06A09
:10408000854200D2A562BDE8F08100002C0000202E
:10409000340500202DE9F041054600F0D3FA2E4CFE
:1040A000A068401CA06020682C4F10B1606940B32C
:1040B0002DE02560A068012829D1002606EB8600A6
:1040C00007EB800000F08CFA761C052EF6D323480F
:1040D000643000F085FA2148783000F081FA1F48FA
:1040E0008C3000F07DFA1D48A03000F079FA1B48B2
:1040F000B43000F075FA1948643060631430A0637E
:1041000005E02068E96AC06A884200D82560606AD4
:10411000401C6062E96A01202269884010432061E6
:1041200001EB810007EB8000291D00F07FFA00F011
:10413000A9FA606900280CD02068E96AC06A884240
:1041400007D207494FF080500860BFF34F8FBFF38D
:104150006F8FBDE8F08100002C000020800400205B
:1041600004ED00E030B4026C0B46002A0BD0C168AD
:104170001144C1608468A14201D30168C16030BCB0
:104180001846FCF752BA30BC70472DE9F041856BF8
:10419000174604460026026C82B1C7B1E068FCF7FE
:1041A00044FAE168206C091AE1602268914202D267
:1041B000A168081AE060022F16D017E02068A8B99D
:1041C000A06800F0ABFF06460020A0600EE060682B
:1041D000FCF72BFA216C606808446060A168884293
:1041E00004D32068606001E005B16D1E6D1CA563FD
:1041F0003046BDE8F08110B5044690F8510058B142
:1042000001280CD002280FD0502080F31188BFF372
:104210004F8FBFF36F8FFEE7206B00F047FA204609
:10422000BDE8104000F042BA10BD000010484FF445
:104230002051420706D0C01D0D4920F00700411A49
:10424000C1F520510B4A00230144C2E9000308399B
:10425000183A21F0070111604B600B600B1AC0E99E
:10426000001393604FF000405360506170470000AE
:104270004805002080000020144E154CA6F1A00730
:104280004FF08058DFF84C9012E000BF00F0DAF9F0
:10429000F068C568281D00F085F9A068401EA06080
:1042A0006068401E606000F0EDF92846FFF7A3FF4C
:1042B00060680028EAD138680128F9D9C9F8008077
:1042C000BFF34F8FBFF36F8FF2E700002005002090
:1042D0002C00002004ED00E00346009829B10260A4
:1042E000C0E90F31012100F0C7BB0060F8E72DE9FC
:1042F000F0479A46DDE9098481466FF00303206B9D
:1043000003EB82021044089E20F00707780707D0CD
:10431000502080F31188BFF34F8FBFF36F8FFEE7FC
:10432000002561B1002023180A5C83F834200A5C60
:1043300012B1401C1028F6D384F8435001E084F8F1
:104340003450052E00D30426E662C4E91165201D11
:1043500000F051F904F1180000F04DF92461C6F1A4
:1043600005006462A061E56484F8505052464946F5
:10437000384600F005F92060B8F1000F01D0C8F808
:104380000040BDE8F087000030B5114900E011465B
:104390000A688242FBD34B685C18844203D14068B0
:1043A00018444860084643681C18944209D1084CD8
:1043B000183C2468A24209D052681A4442600A6834
:1043C00012680260814200D0086030BD0460F9E7E5
:1043D0008000002010B5044600F034F9A06B28B12D
:1043E0005FF0000400F04EF9204610BD0124F9E70B
:1043F0000648416B096829B1416BC968C9684968B9
:10440000816270474FF0FF31FAE700002C00002076
:1044100008484068401C4FF0500080F3118804D0D9
:10442000BFF34F8FBFF36F8FFEE7BFF34F8FBFF325
:104430006F8FFEE7880000202DE9F041044600F070
:1044400001F994F9455004F1240609E0606A48B185
:10445000304600F0AFFE08B100F0C4F96D1E6DB239
:10446000002DF3DC4FF0FF3684F8456000F00AF9C8
:1044700000F0E8F894F9445004F1100709E02069CD
:1044800048B1384600F096FE08B100F0ABF96D1E59
:104490006DB2002DF3DC84F84460BDE8F04100F01B
:1044A000F1B800002DE9F0410546002700F0EEF9D3
:1044B000324E306808B9FFF7B9FE706905424ED137
:1044C000C5B3083568070ED005F00700C0F1080035
:1044D0000544680707D0502080F31188BFF34F8F41
:1044E000BFF36F8FFEE72DB37068854237D823483E
:1044F000183001460C6801E020460C466168A9426C
:1045000002D221680029F7D131688C4227D0076890
:104510002168016060680837411B10290FD96019B4
:10452000420708D0502080F31188BFF34F8FBFF3AC
:104530006F8FFEE713E041606560FFF725FF61685C
:104540007068401A7060B268904200D2B0607069C2
:1045500001430020C4E90001F068401CF06000F055
:1045600063FE780707D0502080F31188BFF34F8F88
:10457000BFF36F8FFEE73846BDE8F081680000208A
:1045800010B5031F4FF080741C601B1F21F0010148
:104590001960191F024B0B60143940380A6010BDB6
:1045A00011440008D0E9013201699A60D0E9012381
:1045B0005A604A68824201D182684A6000220261E0
:1045C0000868401E0860086870470000034B0360DD
:1045D00003F154000860802010607047B400002090
:1045E00000F108014FF0FF32C0E90112C160016122
:1045F00000210160704700210161704730B50B68F0
:104600005A1C02D000F1080202E0026904E02246CE
:10461000546825689D42FAD953684B6099608A6056
:10462000516008610168491C016030BD42684A6000
:1046300093688B6093685960916008610168491CB8
:1046400001607047502080F31188BFF34F8FBFF394
:104650006F8F0A494868401C486001280CD10848FF
:10466000006810F0FF0F07D0502080F31188BFF3CF
:104670004F8FBFF36F8FFEE7704700008800002068
:1046800004ED00E00849486828B1401E486001D1A7
:1046900080F311887047502080F31188BFF34F8F4B
:1046A000BFF36F8FFEE700008800002070B5002880
:1046B0002AD0164DA0F1080460686969084207D144
:1046C000502080F31188BFF34F8FBFF36F8FFEE749
:1046D00022683AB1502080F31188BFF34F8FBFF3A7
:1046E0006F8FFEE78843606000F0D0F8606869680B
:1046F000084468602046FFF747FE2869401C28618F
:10470000BDE8704000F090BD70BD00006800002062
:104710004FF0E02000210161816105494FF47A7278
:104720000968B1FBF2F1491E41610721016170473F
:104730002800002010B5FBF7A1FD114910280ED369
:1047400000F1E02090F8F0030A78904207D2502060
:1047500080F31188BFF34F8FBFF36F8FFEE70948D7
:104760000068896800F4E060884207D9502080F32F
:104770001188BFF34F8FBFF36F8FFEE710BD0000AE
:10478000880000200CED00E010B5020014D00F48A6
:10479000006B38B1502080F31188BFF34F8FBFF307
:1047A0006F8FFEE700F072F800211046FFF73AFC29
:1047B00000F03AFD002807D105494FF0805008600D
:1047C000BFF34F8FBFF36F8F10BD00002C00002090
:1047D00004ED00E002490A6A0260C968416070475E
:1047E0002C00002001490120C86170472C000020E6
:1047F00010B50C4650B1094909681831FFF7FEFEA3
:104800002046BDE810400121FFF70CBC502080F38A
:104810001188BFF34F8FBFF36F8FFEE72C0000208E
:1048200010B586B00024039405AA04A903A8049433
:10483000FFF7CCFEDDE903010094CDE90110002370
:104840000EA11048059A00F0BCFB0F490028C86271
:1048500011D0502080F31188BFF34F8FBFF36F8FBB
:104860004FF0FF30886201204861CC6006B0BDE89F
:10487000104000F059B806B010BD000049444C4546
:1048800000000000794200082C0000200248016B63
:10489000491C0163704700002C0000201448016B84
:1048A00011B10121C16170470021C1610169B1FAF3
:1048B00081F1C1F11F0101EB81020E4951F8223053
:1048C0006BB101EB820101F108034A6852684A604A
:1048D0009A4201D152684A60D16801607047502005
:1048E00080F31188BFF34F8FBFF36F8FFEE7000097
:1048F0002C0000208004002070B50A484168491C43
:1049000041600025046809E0A068401CA06061685F
:10491000884202D3A56020688047E468002CF3D168
:1049200070BD00009C0000201CB52649087801904D
:10493000FF20087008788DF800009DF800009DF8B1
:10494000002000F0F000904207D0502080F3118842
:10495000BFF34F8FBFF36F8FFEE79DF800001A4C37
:1049600000F0500020700720A06005E09DF80020B6
:1049700052008DF80020401E9DF800201206F5D44C
:10498000A060032807D0502080F31188BFF34F8F19
:10499000BFF36F8FFEE74FF44070A060019808707E
:1049A0000A48016841F470010160016841F07041FA
:1049B0000160FFF7ADFE00206060FBF729FC0020DE
:1049C0001CBD000000E400E08800002020ED00E0B5
:1049D000F8B517460E46050013D005FB06F0483023
:1049E000FFF760FD04000AD0002084F8460004F1BF
:1049F00048023B46314628460094FFF76DFC2046AE
:104A0000F8BD502080F31188BFF34F8FBFF36F8F35
:104A1000FEE738B5049D18B153B1CAB181B120E0A9
:104A2000502080F31188BFF34F8FBFF36F8FFEE7E5
:104A3000502080F31188BFF34F8FBFF36F8FFEE7D5
:104A4000502080F31188BFF34F8FBFF36F8FFEE7C5
:104A500039B1502080F31188BFF34F8FBFF36F8FB0
:104A6000FEE748241C46012384F846302B46009478
:104A7000FFF732FC204638BD70B50D46040025D046
:104A8000FFF7E0FDD4E90F20216802FB0011A160CF
:104A90000021A163216861600A46D4E90F01401E2C
:104AA00000FB0121E16021464FF0FF3001F8440F87
:104AB000487004F110008DB1FFF792FD04F124005D
:104AC000FFF78EFDFFF7DEFD012070BD502080F363
:104AD0001188BFF34F8FBFF36F8FFEE72169002965
:104AE000F0D000F067FB0028ECD004494FF0805074
:104AF0000860BFF34F8FBFF36F8FE3E704ED00E073
:104B00002DE9FF4782B01D468A464FF00008040099
:104B100003D0BAF1000F08D011E0502080F31188C3
:104B2000BFF34F8FBFF36F8FFEE7206C38B150207B
:104B300080F31188BFF34F8FBFF36F8FFEE7022D15
:104B40000AD1E06B012807D0502080F31188BFF311
:104B50004F8FBFF36F8FFEE700F05EFA3F4F4FF0CD
:104B600000094FF0805648B9049838B1502080F3BE
:104B70001188BFF34F8FBFF36F8FFEE7FFF762FD22
:104B8000A06BE16B884207D3022D05D00498D0B109
:104B9000B8F1000F1AD01EE02A4651462046FFF712
:104BA000F4FA616A19B104F1240000F003FB20B1AA
:104BB0003E60BFF34F8FBFF36F8FFFF763FD0120A0
:104BC00006B0BDE8F087FFF75DFD22E06846FFF71D
:104BD00001FE4FF00108FFF755FDFFF757FEFFF705
:104BE00031FD94F94400401C01D184F8449094F9BB
:104BF0004500401C01D184F84590FFF743FD04A90E
:104C0000684600F077F930B12046FFF715FC00F058
:104C10000BFB0020D4E7FFF715FDA06BE16B88428A
:104C200013D1FFF72FFD04F110000499FFF7E0FD09
:104C30002046FFF701FC00F0F7FA00289ED13E6005
:104C4000BFF34F8FBFF36F8F98E7FFF71BFD204631
:104C5000FFF7F2FB00F0E8FA90E7000004ED00E057
:104C60002DE9F0471F4690468946040003D0B9F16C
:104C7000000F08D011E0502080F31188BFF34F8F50
:104C8000BFF36F8FFEE7206C38B1502080F311889E
:104C9000BFF34F8FBFF36F8FFEE7022F0AD1E06B98
:104CA000012807D0502080F31188BFF34F8FBFF346
:104CB0006F8FFEE7FFF73EFD5020EFF3118680F384
:104CC0001188BFF34F8FBFF36F8FA06BE16B8842EA
:104CD00006D3022F04D0002086F31188BDE8F087A8
:104CE00094F94550A06B3A4649462046FFF74DFAE5
:104CF000681C04D06D1C84F845500120ECE7606A04
:104D00000028FAD004F1240000F054FA0028F4D06E
:104D1000B8F1000FF1D00121C8F80010EDE7000054
:104D20002DE9F747002683B08A46040003D0BAF184
:104D3000000F08D011E0502080F31188BFF34F8F8F
:104D4000BFF36F8FFEE7206C38B1502080F31188DD
:104D5000BFF34F8FBFF36F8FFEE700F05DF9DFF811
:104D6000F4804FF000094FF0805748B9059838B1EA
:104D7000502080F31188BFF34F8FBFF36F8FFEE792
:104D8000FFF760FCA56BC5B151462046FFF7EAF975
:104D90006D1EA563206950B104F1100000F00AFAFD
:104DA00028B1C8F80070BFF34F8FBFF36F8FFFF7C4
:104DB00069FC012006B0BDE8F087059808B11EB176
:104DC00006E0FFF75FFC27E06846FFF703FD0126DA
:104DD000FFF758FCFFF75AFDFFF734FC94F9440045
:104DE000401C01D184F8449094F94500401C01D145
:104DF00084F84590FFF746FC05A9684600F07AF86C
:104E0000002820460AD0FFF717FB00F00DFA2046D5
:104E1000FFF7E0FA0028B3D00020CBE7FFF7DAFA7B
:104E200090B104F124000599FFF7E2FC2046FFF75A
:104E300003FB00F0F9F90028A2D1C8F80070BFF315
:104E40004F8FBFF36F8F9BE72046FFF7F5FA00F017
:104E5000EBF995E704ED00E02DE9F047904689462F
:104E6000040003D0B9F1000F08D011E0502080F306
:104E70001188BFF34F8FBFF36F8FFEE7206C38B1FF
:104E8000502080F31188BFF34F8FBFF36F8FFEE781
:104E9000FFF750FC5020EFF3118680F31188BFF329
:104EA0004F8FBFF36F8FA76BF7B194F9445049460A
:104EB0002046FFF757F97F1EA763681C04D06D1CBE
:104EC00084F84450012010E020690028FAD004F151
:104ED000100000F06FF90028F4D0B8F1000FF1D005
:104EE0000121C8F80010EDE7002086F31188BDE825
:104EF000F08700002DE9F0410C46050011D0C4B147
:104F0000FFF7A0FB174BDA686E682068911B471CFF
:104F100017D02F681B6A9F4219D0964217D80124D8
:104F200010E0502080F31188BFF34F8FBFF36F8FD5
:104F3000FEE7502080F31188BFF34F8FBFF36F8FD0
:104F4000FEE70024FFF79EFB2046BDE8F081884283
:104F500005D9401A20602846FFF73CFCF1E7002005
:104F60002060DCE72C0000202DE9FF5F8346DDE9AF
:104F70000E87994616468A469000FFF793FA050079
:104F80001CD05420FFF78EFA040014D000202563B3
:104F900084F85100CDE90240CDE900874B46324606
:104FA00051465846FFF7A3F92046FFF773F8012052
:104FB00004B0BDE8F09F2846FFF778FB4FF0FF30C4
:104FC000F6E7F0B585B0DDE90B640A9DA6B1DCB16A
:104FD000542700972663022684F85160002604AF08
:104FE000CDE90246CDE90057FFF781F92046FFF7EA
:104FF00051F8049805B0F0BD502080F31188BFF33C
:105000004F8FBFF36F8FFEE7502080F31188BFF3FF
:105010004F8FBFF36F8FFEE70548416919B1006BF1
:1050200018B100207047012070470220704700002F
:105030002C0000200148C068704700002C000020B0
:1050400010B5FFF777FB0148C06810BD2C000020A9
:105050002DE9F0412F4C0026206B28B1A069401C9F
:10506000A0613046BDE8F081E5686D1CE56013D1B4
:10507000606B006838B1502080F31188BFF34F8F08
:10508000BFF36F8FFEE7606BA16B6163A063206A63
:10509000401C2062FFF7ACF9A06ADFF87C808542F3
:1050A00009D3606B0068A0B1606BC068C76878689E
:1050B000854211D2A0622068C06A00EB800158F8D6
:1050C0002100012800D90126E0690028C9D0012665
:1050D000C7E74FF0FF30EDE7381DFFF763FAB86A16
:1050E00018B107F11800FFF75DFAF96A012022698B
:1050F00088401043206101EB810108EB8100391DDC
:10510000FFF794FAF86A2168C96A8842C9D3012670
:10511000C7E700002C0000208004002070B50400C8
:105120004FF0000140D0214D2868844207D0502024
:1051300080F31188BFF34F8FBFF36F8FFEE7A06C32
:1051400038B1401EA064636CE26A9A422CD040B130
:105150002AE0502080F31188BFF34F8FBFF36F8F89
:10516000FEE7201DFFF71EFA114A012150B9E06A3F
:1051700000EB800352F8233023B92B6901FA00F0C9
:1051800083432B61606CE062C0F10500A061E06ABE
:105190002B6981401943296100EB800002EB8000FC
:1051A000211DFFF743FA0121084670BD2C000020A5
:1051B000800400202DE9F041C068C468ACB104F15E
:1051C00018000746FFF7EEF9154D286B0126A0B130
:1051D00039461448FFF72AFAE06A2968C96A884202
:1051E0001CD90120EE61BDE8F081502080F31188C8
:1051F000BFF34F8FBFF36F8FFEE7201DFFF7D2F98C
:10520000E16A2A6906FA01F01043286101EB810086
:1052100004498C3901EB8000211DDBE70020E2E727
:105220002C0000200C0500202DE9F0472C4D002417
:105230002746286B38B1FFF705FA286B401E286314
:10524000286B40B146E0502080F31188BFF34F8FA8
:10525000BFF36F8FFEE7A968224E0120D1B3A6F1FC
:105260008C0980463068E8B1F068C46804F1180021
:10527000FFF798F9201DFFF795F9E06A2A6908FA07
:1052800000F11143296100EB800109EB8100211D30
:10529000FFF7CCF9E06A2968C96A8842E2D3C5F809
:1052A0001C80DFE70CB1FFF7A3F8AC6944B14646B8
:1052B000FFF7CEFE00B1EE61641EF9D10020A861B7
:1052C000E86938B10849012738070860BFF34F8FF4
:1052D000BFF36F8FFFF7D6F93846BDE8F0870000BF
:1052E0002C0000200C05002004ED00E010B5002982
:1052F0000AD00878002807D005487844FBF780FAE0
:10530000002801D0002010BD0248784410BD0000E4
:1053100002020000FA010000000100000400000089
:105320000000000000000000000100000400000078
:10533000000000000000000090540008D938000868
:10534000FEFF0000000000008000000000000000E0
:10535000000000009C5400088F3A00080100000083
:10536000000000000002000000000000000000003B
:10537000AC540008873A000801000000000000005B
:10538000000200000000000000000000BC54000803
:10539000933A000800000000000000000002000036
:1053A0000000000000000000CC5400088B3A000808
:1053B00000000000000000000002000000000000EB
:1053C00000000000010202030405060708090A0B99
:1053D0000C0D0E0F10100000000000000000010274
:1053E000030406070809000000000102030400008E
:1053F000556E6B6E6F776E000000000000000000BD
:10540000000000000000000000000000000000009C
:10541000000000000000000000000000000000008C
:10542000000000000000000000000000000000007C
:10543000302E302E302E3000000000000000000022
:10544000000000000000000000000000000000005C
:105450003A3A0000000000000000000000000000D8
:10546000000000000000000000000000000000003C
:10547000000000000000000000000000000000002C
:10548000000000000000000000000000000000001C
:1054900064656661756C745461736B005253343883
:1054A000355F52785461736B000000005247323010
:1054B00030555F52785461736B000000525334389A
:1054C000355F54785461736B0000000052473230EE
:1054D00030555F54785461736B0000000C5600081F
:1054E00000000020B40000006C010008C056000855
:1054F000B4000020F435000088010008100100000D
:1055000043000000F8FFFFFF0040404040404040A3
:105510004040414141414140404040404040404086
:10552000404040404040404040050202020202022A
:105530000202020202020202022020202020202079
:10554000202020020202020202029090909090908D
:10555000101010101010101010101010101010104B
:1055600010101010020202020202888888888888BF
:1055700008080808080808080808080808080808AB
:1055800008080808020202024000000000000000B3
:10559000000000000000000000000000000000000B
:1055A00000000000000000000000000000000000FB
:1055B00000000000000000000000000000000000EB
:1055C00000000000000000000000000000000000DB
:1055D00000000000000000000000000000000000CB
:1055E00000000000000000000000000000000000BB
:1055F00000000000000000000000000000000000AB
:10560000000000000000000000000000000000009A
:10561000000000000000000000000000000000008A
:105620000000000000000000010000001000000069
:105630000000000000127A000000000000000000DE
:10564000000000000000000000000000000000005A
:10565000000000000000000000000000000000004A
:10566000000000000000000000000000000000003A
:10567000000000000000000000000000000000002A
:10568000000000000000000000000000000000001A
:105690000000000000000000AAAAAAAA0000000062
:1056A00000000000000000000000000000000000FA
:1056B00000000000000000000000000000000000EA
:0400000508000131BD
:00000001FF
